:020000040800F2
:10000000F84D00204D8A0008A50D0008A70D000836
:10001000A90D0008AB0D0008AD0D000800000000A0
:10002000000000000000000000000000AF0D00080C
:10003000B10D000800000000B30D0008B50D000868
:10004000678A0008678A0008678A0008678A0008CC
:10005000678A0008678A0008678A0008678A0008BC
:10006000D9210008678A0008678A0008EB6A00083F
:10007000678A0008678A0008678A0008678A00089C
:10008000678A0008678A0008BD6A0008678A000856
:10009000678A0008678A0008678A0008678A00087C
:1000A000678A000865160008678A0008678A0008E2
:1000B000678A00085B20000869200008678A00083A
:1000C000678A0008678A0008678A0008678A00084C
:1000D000678A0008511000084D1100084F120008EF
:1000E000678A0008678A0008678A0008DFF810D06E
:1000F0000BF04CF90048004705010008AFF3008001
:10010000F84D00201CB500F001FF4FF4A06008F08E
:10011000AFFC4FF4E13000F04FFF01F069FAFF4807
:100120000124C0F89441C0F89041FD4D00226F2198
:10013000EB692846984729692846884706F0F5FB69
:1001400002F0BEF9642000F00FFF02F0A3FA05F000
:10015000EAF904F04EFF04F00DFF04F027FF002140
:1001600041F61F4002F080F806F076F906F074F9C7
:10017000C82000F0F9FE06F092FB642000F0F4FEC7
:10018000FF21084606F08FFA0222E649E64806F00B
:10019000EDF8E449E4480222091D203006F0E6F8B3
:1001A000E049E14802220831403006F0DFF8DD493D
:1001B000DD4802220C31603006F0D8F8DFF86C938D
:1001C000A046DB4D04F015FF04F0F0FED54C0C27E3
:1001D00046460C3C79E02888002106F00AFC207095
:1001E000002006F037FAE070A178012906D02178C6
:1001F000022903D0012801D0052805D1216B491C13
:1002000021630A2900DB26632178082901D0072809
:1002100006D1206B401E2063002801DC09202063EA
:1002200000210C23C3A20846009605F01FF8CDE973
:100230000076012310210020226B05F04BF8206B83
:100240000A282ED2DFE800F02D05091115191D210D
:1002500025290C23BBA2009602E00C23BEA2009627
:100260001021082005F002F824E00C23BFA200961C
:10027000F6E70C23C2A20096F2E70C23C5A2009673
:10028000EEE70C23C8A20096EAE70C23CBA2009667
:10029000E6E70C23CFA20096E2E70C23D3A2009658
:1002A000DEE70C23D6A210210820009604F0DEFF22
:1002B00004F07CFED4E90C01814201D004F076FE0A
:1002C000206B6063322000F04FFE206B002882D04C
:1002D000A078022806D02078052803D0E0780D28E1
:1002E0007FF479AF04F085FE4FF0000ACDE9007A83
:1002F000012351465046226B04F0ECFF0C23B0461C
:10030000C2A200211846009604F0B0FF04F04EFE91
:100310004FF47A7000F028FE04F06BFE206B0A2880
:10032000BFF450AFDFE800F00505050F1FF4F3F24E
:10033000F1F047E72888002106F05BFB20700020E1
:1003400006F088F9E0702078032802D0E0780F28C2
:10035000F0D1E6E32888002106F04BFB2070002056
:1003600006F078F9E07020780328F2D0E0780F28C2
:10037000F0D1D6E32888002106F03BFB2070002056
:1003800006F068F9E070A178012906D021780229E9
:1003900003D0012801D0052806D1A16B491CA16317
:1003A0000A2901DBC4F838802178082901D0072800
:1003B00006D1A06B401EA063002801DC0920A063C9
:1003C000002146460C2393A20846CDF8008004F095
:1003D0004DFFCDE90076012310210020A26B04F02F
:1003E00079FFA06B0A282ED2DFE800F02D05091155
:1003F00015191D2125290C2366A2009602E00C2365
:1004000087A200961021082004F030FF24E00C237E
:1004100089A20096F6E70C2359A20096F2E70C2376
:100420008CA20096EEE70C238FA20096EAE70C233D
:1004300092A20096E6E70C2395A20096E2E70C2331
:1004400098A20096DEE70C236DA2102108200096EA
:1004500004F00CFF04F0AAFDD4E90E01814201D0A2
:1004600004F0A4FDA06BE063322000F07DFDA06BE2
:1004700000283FF47FAFA078022806D02078052816
:1004800003D0E0780D287FF475AFA06B05283FD22C
:10049000DFE800F03E0342414000874807F0A2FF3A
:1004A0002EE02888002106F0A4FA2070002006F033
:1004B000D1F8E070C4F848A0D446804E7E4AE16C82
:1004C0006046431852F8233003F5966346F820300F
:1004D000401C8028F5DB491CC4E91201B1F5607F9E
:1004E00001DBC4F84CC00D48D0F89011C943C0F8E6
:1004F000901104F07EFD40F6C411704805F083FCB5
:100500002078032805D0DBE0FEE3B6E3F0E155E117
:1005100034E12FE14BE127E1D7E000000000214268
:10052000A81C00201800002080FF010800380140AE
:100530007229002057686963682070726F67726162
:100540006D3F000050726F6772616D312020202076
:10055000202020202020000050726F6772616D32D1
:1005600020202020202020202020000050726F67B3
:1005700072616D33202020202020202020200000C8
:1005800050726F6772616D3420202020202020205F
:1005900020200000576176655F5465737420202029
:1005A00020202020202020004646545F546573748C
:1005B0002020202020202020202000005049445FBF
:1005C0004368616E676520202020202020202020A5
:1005D000000000004461746153636F70655465737B
:1005E0007420202020202020202020004144435F30
:1005F000544553542020202020202020202000007B
:1006000053454C454354204F4E45000050726F6790
:1006100072616D00576869636820776176653F0095
:10062000566563746F725F53686F772020202020B7
:10063000202020200000000052656374616E676C0A
:10064000655F53686F772020202020202020202005
:100650000000000050726F6772616D35202020200D
:10066000202020202020000050726F6772616D36BC
:1006700020202020202020202020000050726F67A2
:1006800072616D37202020202020202020000000D3
:1006900050726F6772616D3820202020202020204A
:1006A0002020000050726F6772616D392020202079
:1006B0002020202020200000A8020020A8120020D6
:1006C000E0780F287FF4EDAE54E0FF487F2300F57B
:1006D000806180F800A081F800A0437081F801A03B
:1006E00080F802A03F228A70C370CA700271202273
:1006F0000A71564680F805A04E710FE02888002147
:1007000006F077F92070002005F0A4FFE07004F0F7
:1007100070FC0622ED49EC4805F0B7FB2078032871
:1007200002D0E0780F28E9D104F063FCA66325E04D
:100730002888002106F05DF92070002005F08AFF6E
:10074000E070A06C401CA064642801DDC4F848A0DF
:1007500004F04FFC142394F848001A460A2105F0CF
:10076000AEFB642000F000FC2078032802D0E07883
:100770000F28DDD104F03DFCC4F838A02078032810
:1007800003D0E0780F287FF472AE04F032FC5046BC
:10079000C4F838A0AAE02888002106F02AF92070C1
:1007A000002005F057FFE070642000F0DDFB2078AA
:1007B0000328DFD0E0780F28EDD1DBE7C44807F04D
:1007C00011FE002020708AE02888002106F011F92F
:1007D0002070002005F03EFFE070BD4807F0A8FE45
:1007E000E078102802D0207801280BD100204FF4A7
:1007F0000076A064142000F0B7FBA06C401CA0643D
:10080000B042F7DBE0780E2803D02078022844D0ED
:1008100046E02888002106F0ECF82070002005F062
:1008200019FFE0700020AA4E4FF07E5A4FF0804B27
:100830004FF48067C4F8480056F820000AF01CFB0B
:10084000012106F075F90221504606F071F90321E5
:10085000584606F06DF904219E4806F069F9042116
:10086000484606F0CAF9642000F07EFB642000F0E0
:100870007BFB642000F078FB642000F075FB6420B3
:1008800000F072FB642000F06FFBA06C401CA064C1
:10089000B842D1DB642000F067FBE0780F28B8D1C4
:1008A000002146460C238CA20846CDF8008004F0B7
:1008B000DDFC0C238AA20E210020009604F0D6FC59
:1008C0000C2389A21C210020009604F0CFFC04F028
:1008D0006DFB322000F048FB2078032803D0E0783D
:1008E0000F287FF471AF04F084FB0020206369E4DB
:1008F0007748E168203800F1100B01602169416000
:1009000061698160A169C160A16ACBF80010616A68
:10091000CBF80410E169CBF80810216ACBF80C1071
:100920002888002106F065F82070002005F092FE6E
:10093000E0700646012802D02078052802D12079EF
:10094000C04320710D2E02D02078032802D12079D7
:10095000C04320712778022F01D0052E11D12079B4
:10096000A0B1206CB0B1616C8A465BF821000AF03E
:10097000F5FA5F4A5F4B0AF0E0F80AF002FB4BF829
:100980002A00082F15D0072E13D025E0606C401EDA
:100990006064F6E7606C4E4A8246203A5BF82010AD
:1009A00052F8200009F0F5FF494A203A42F82A009F
:1009B000E7E72079A8B1206C0028606C824614D04B
:1009C0005BF820000AF0CAFA494A4A4B0AF056F985
:1009D0000AF0D7FA4BF82A00062F13D0062E11D0B2
:1009E00015E0606C401C6064F6E7394A5BF8201043
:1009F000203A52F82A000AF01EF83549203941F809
:100A00002A00E9E7207910B9206C401C2064042FEB
:100A100001D0082E04D1207910B9206C401E20642A
:100A2000032F07D00F2E05D0206C012878DD002081
:100A30002064C0E004F0DDFA002147460C232EA21A
:100A40000846CDF8008004F011FC6079012820D020
:100A50000C232FA20F210020009704F007FC002098
:100A600000900C232CA21E21002004F0FFFB04F0B8
:100A70009DFA00262888002105F0BBFF2070002089
:100A800005F0E8FDE070217802290BD0052809D097
:100A900009E000200C231EA20F21009004F0E6FBC9
:100AA0000097DEE76771082901D0072800D1667139
:100AB000052950D001284ED00D284CD0607901284E
:100AC0006BD00C2315A22DE0A8140020A81800203C
:100AD000A8020020000040403130303A0000000001
:100AE000313030303A000000353030303A0000000C
:100AF0007B14AE47E17A843F446F20796F7520778D
:100B0000616E7420746F20736176653F3A00000057
:100B10005945533A000000004E4F0000594553001C
:100B200045E026E10F210020009704F09FFB00968E
:100B30000C23AFF21C021E21002004F097FB322090
:100B400000F012FA6079A179884201D004F02EFAFF
:100B50006079A0718EE7677102228849884805F0A4
:100B600012FC864986480222091D203005F00BFC44
:100B70008249834802220831403005F004FC7F4955
:100B80007F4802220C31603005F0FDFB642000F04C
:100B9000EBF904F02EFA266377E00C23AFF284021F
:100BA0000F210020009604F061FB0097C0E70028A9
:100BB00001DAC4F84080606C032801DD002002E007
:100BC000002801DA032060646C48012208215030BB
:100BD00009F0A3FE6949626C503101EB4201226CBD
:100BE0000020885467480168E1604168216181689C
:100BF0006161C068A061DBF80010A162DBF804103D
:100C00006162DBF80810E161DBF80C0020625B48F0
:100C10002179503004F0E2FF322000F0A5F97FE6A0
:100C20002888002105F0E5FE2070002005F012FD67
:100C3000E0700121206D05F07BFF0221606D05F061
:100C400077FF0321A06D05F073FFA06842F21071D9
:100C5000B0FBF1F00AF02FF90BF060FF0AF091F908
:100C6000042105F065FF0421484605F0C6FFE66251
:100C70006770667005F090F901E0474656462078A7
:100C8000032802D0E0780F28CAD104F0B2F9266315
:100C90002DE62888002105F0ACFE2070002005F02C
:100CA000D9FCE07004F0A5F900210C2336A2084617
:100CB000009604F0DBFA002005F0EEFECDE90076A8
:100CC0000246042300213C2004F004FB002005F030
:100CD000E3FE002105F08DFECDE9007602460123FA
:100CE0001E21002004F0F6FACDE900766A8804237C
:100CF00018211E2004F0EEFA0C2325A2194600202C
:100D0000009604F0B3FA00E02CE0012005F0C4FEE8
:100D1000CDE90076024604230C211E2004F0DAFA05
:100D2000012005F0B9FE0AF0C6F800221A4B0AF0BD
:100D30001DF84FF06632194B09F0A6FF02220AF0A7
:100D400084F80022164B09F09FFF0AF0EEF8CDE977
:100D50000076024604230C213C2004F0BBFA04F088
:100D600025F900E046462078032802D0E0780F28D5
:100D70008FD104F03EF9C4F830A0B8E51800002087
:100D800080FF010888020020414443303A000000FF
:100D9000414443310000000000FEAF4066660A4057
:100DA000000059407047FEE7FEE7FEE7FEE77047A8
:100DB00070477047704700000CB500214B48019107
:100DC0000091026842F4803202604FF4A06302682E
:100DD00002F400320092019A521C0192009A12B958
:100DE000019A9A42F3D10268920333D5012100910E
:100DF0003F490A6842F010020A600A6822F00302C2
:100E00000A600A6842F002020A6041684160416873
:100E10004160416841F480614160416821F47C1186
:100E20004160416841F4E8114160016841F080711E
:100E3000016001688901FCD5416821F0030141602E
:100E4000416841F0020141604168C1F3810102291A
:100E5000FAD10CBD00910CBD244810B5016841F0D9
:100E6000010101604168234A114041600168224A42
:100E700011400160016821F480210160416821F482
:100E8000FE0141604FF41F018160FFF795FF1B4990
:100E90004FF00060086010BD144910B54868184A4A
:100EA00010F00C03174803D0042B01D0082B0AD0F4
:100EB00002604968134AC1F30311121D515C0268B4
:100EC000CA40026010BD4A684B6802F470124FF0CD
:100ED000020413F4803F04EB924202D04B689B0360
:100EE00001D5094B00E0064B5A43E1E700100240F0
:100EF000002002400000FFF8FFFFF6FE08ED00E0D2
:100F000000127A00B400002000093D0010B56FF017
:100F1000040007F0F2FD204820490068B0FBF1F022
:100F2000C1B21F4801EB41020170C2EBC1114FF683
:100F3000FF7202EAC101418010BD19490978484396
:100F40004FF0E021486100228A61086940F0010009
:100F500008610869C30701D0C003FAD5086920F009
:100F6000010008618A6170470D49498848434FF084
:100F7000E021486100228A61086940F001000861AF
:100F80000869C30701D0C003FAD5086920F0010041
:100F900008618A6170470000B400002000127A00E6
:100FA000C80000207047F8490A885206FCD5F64A66
:100FB000C1B2121D1180704730B5044687B00121BF
:100FC00044F2050008F01BFD4FF40070ADF810006E
:100FD00003208DF812001820EC4D8DF8130004A9A1
:100FE000284608F022FB2815ADF8100004208DF8E3
:100FF000130004A9284608F018FB25208DF81400DA
:1010000001218DF815108DF816108DF8171005A810
:1010100007F033FD0020ADF804000094ADF80600A1
:10102000ADF80800ADF80C000C20D74CADF80A0064
:101030006946204609F0DCFA012240F2255120469B
:1010400009F053FB0121204609F045FB07B030BDF4
:1010500010B5CD4C40F22551204609F0FDFB00288B
:101060000FD0204609F091FBC1B2C9480288120690
:1010700007D4028853064FF0000207D50A2901D091
:10108000028010BD018841F0800110E00D290BD0D5
:101090000388C04C03F03F03E1540188491C0180E0
:1010A0000188C729ECD810BD018841F040010180BA
:1010B00010BDF0B5064687B00121042008F09FFC62
:1010C0000121480408F0A4FC0424ADF810400325D5
:1010D0008DF812501820AD4F8DF8130004A9384632
:1010E00008F0A3FA0820ADF810008DF8134004A909
:1010F000384608F09AFA26208DF8140000248DF85E
:1011000015408DF8165001208DF8170005A807F03E
:10111000B4FCADF80440ADF80640ADF80840ADF8B9
:101120000C400C209C4CADF80A0000966946204605
:1011300009F05EFA012240F22551204609F0D5FA65
:101140000121204609F0C7FA07B0F0BD10B5924C56
:1011500040F22551204609F07FFB00280FD02046A1
:1011600009F013FBC1B28A484288120607D44288AC
:1011700053064FF0000207D50A2901D0428010BD66
:10118000418841F0800111E00D290CD04388814C49
:1011900003F03F03C834E1544188491C4180418831
:1011A000C729EBD810BD418841F04001418010BDF6
:1011B00070B5054686B00121082008F020FC012109
:1011C000880408F025FC4FF48060ADF8100003247B
:1011D0008DF812401820714E8DF8130004A9304686
:1011E00008F023FAF014ADF8100004208DF8130075
:1011F00004A9304608F019FA27208DF814008DF85C
:1012000015408DF8164001208DF8170005A807F04D
:1012100034FC0020ADF80400ADF80600ADF808007D
:10122000ADF80C000C205E4CADF80A000095694644
:10123000204609F0DDF9012240F22551204609F04F
:1012400054FA0121204609F046FA06B070BD10B5E7
:10125000534C40F22551204609F0FEFA00280FD0E9
:10126000204609F092FAC1B249488288120607D492
:10127000828853064FF0000207D50A2901D08280E8
:1012800010BD818841F0800110E00D290BD08388CA
:10129000444C03F03F03E1548188491C81808188DC
:1012A000C729ECD810BD818841F04001818010BD74
:1012B0000FB42DE9FF4106460CAC00250FE05C2978
:1012C00015D000F1010025290B901ED0304609F001
:1012D00058FA4021304609F0B5FA0028F9D00B98A9
:1012E00001780029EBD1BDE8FF015DF814FB401C3B
:1012F0000B9001786E2903D072291BD10D2100E0DB
:101300000A21304609F03DFA13E00178642914D02F
:1013100073290FD180CC09E0304609F032FA402120
:10132000304609F08FFA0028F9D07F1C397800295F
:10133000F2D10B98401C0B90CBE702CC00276846FB
:10134000002931D007DA4FF02D028DF80020C1F1CD
:10135000000100F1010042F210734FF00A0C00BFCF
:1013600091FBF3F252EA070E06D002F1300700F8C3
:10137000017B02FB1311012793FBFCF3002BEFDC35
:1013800005706F4620E00000003801400008014071
:10139000CC000020F01C002000440040000C014064
:1013A00000480040801E002030208DF800008DF89D
:1013B0000150E6E7304609F0E4F94021304609F0F3
:1013C00041FA0028F9D07F1C39780029F2D1B0E722
:1013D00010B5044609F0D5F94021204609F032FA4B
:1013E0000128F9D110BD2DE9F04116460D460746FA
:1013F000002406E015F8011B3846FFF7E9FF641CDE
:10140000A4B2B442F6D3BDE8F0812DE9F04107461D
:101410000D46084609F093FA86B2002407E000BFA3
:1014200015F8011B3846FFF7D3FF641CA4B2B44281
:10143000F6D3E8E7F0B5B3B00C460546C8216846D8
:1014400009F072FA654A00206B46062D62D2DFE889
:1014500005F0610315283A4D118809065AD51188FF
:101460005F4E01F03F05002102E0775C5F54491CAC
:10147000A942FADB58542CB3108048E05188090681
:1014800048D55188564E01F03F050021C83602E08C
:10149000775C5F54491CA942FADB585494B15080E0
:1014A00035E09188090635D591884E4E01F03F050B
:1014B000002102E0775C5F54491CA942FADB5854D2
:1014C00004B1908023E0D188090623D5D188454E08
:1014D00001F03F050021C83602E0775C5F54491CEB
:1014E000A942FADB585494B1D08010E01189090662
:1014F00010D511893C4E01F03F05002102E0775CD8
:101500005F54491CA942FADB585404B110811846B3
:1015100033B0F0BD0020FBE7F0B50C468BB01546AC
:101520001946FFF787FF0146684609F01CFA68462E
:1015300009F005FA6119814201DD011BCDB26B464C
:101540002AA18B4218D0AC4216D8002105AA6619F0
:1015500009E0A14206DB8E4204DDA1EB040C5F5CD6
:1015600002F80C70491C8142F3DB002050551046F4
:1015700009F002FA0BB0F0BD0020FBE7F0B50C4615
:101580009BB015461946FFF755FF0146684609F01E
:10159000EAF9684609F0D3F96119814200DD051BBB
:1015A0006B4612A18B4216D0AC4214DC00210DAA6E
:1015B000661909E0A14206DB8E4204DDA1EB040CB2
:1015C0005F5C02F80C70491C8142F3DB002050552F
:1015D00010461BB0F0BD0020FBE70000CC0000204F
:1015E000F01C0020801E00201020002000000000C1
:1015F00038B501210C2008F002FA3020ADF80000C7
:1016000010248DF8034003258DF8025069461148D7
:1016100008F00BF8ADF800408DF803408DF802504B
:1016200069460D4808F001F838BD10B50B4A002393
:1016300060B10B490C68641C0C60844205D1D2F87F
:101640009401C043C2F894010B6010BDC2F89431FC
:1016500010BD000000080140000C014000002142C4
:10166000DC00002010B5FE4C0121204608F081FF6F
:10167000002821D00121204608F087FFF9480168A1
:10168000491C016000683221B0FBF1F201FB12003D
:1016900050B9F548D0F89011C943C0F89011F34AF9
:1016A000F349F44800F0F4FFF3480078012803D12F
:1016B000F2480168491C016010BD70B5144609F07C
:1016C000BAF90546EE482146006809F0BAF9044621
:1016D000EC482946006809F0B4F9214609F059F9A7
:1016E000BDE8704009F0F4BB2DE9F041E64A002561
:1016F000E74C1368E54A012B5FD0E64B1B68157079
:10170000012B5DD0E560084409F0B6FB0646606039
:10171000A06809F023FCE04FE04B3A4609F0B4FA28
:1017200009F02FFC8046304609F018FC3A46DC4BA5
:1017300009F0AAFA06460F46404609F00FFC324669
:101740003B4609F0FAF909F01CFC06460146A06088
:10175000206909F01EF9E16809F06DF9D1492061AD
:10176000884202DCD049884200D92161CF48016813
:101770002069884609F065F90746CD48016830467A
:1017800009F05FF9394609F004F906462060B948C6
:10179000C8490068884202D8C749884200DD2561EF
:1017A0004146206909F04DF909F092FBC3490860F0
:1017B0003046BDE8F04109F08BBB1570C04A00E02F
:1017C000C04AE2609FE72DE9F74F82B0DFF800835F
:1017D000BE4800900026D8F80000BB4FDFF8F49216
:1017E000DFF8F4A2AA4C3546012808D0D9F8000049
:1017F000012804D0B948C4E90805E56124E04FF0A8
:101800007E5B5946606A09F0C4F86062584507D1AA
:10181000DDE90201084400F053FC09F02DFBE06112
:10182000AF48E16909F03FF9AE492062884202DB26
:10183000AD49884200DD2162D8F8000001281AD0A5
:10184000D9F8000001281BD065613946606909F0AC
:10185000B5FB00D2676155465046616909F0AEFBA1
:1018600000D265618848006801280FD08948006867
:1018700001280BD00CE0216A606909F08AF803E0C6
:10188000216A606909F0D7F86061DEE74FF07C56A5
:101890003146049809F0D5F805466069009980F052
:1018A000004009F0CEF8294609F0C5F8A06105B05E
:1018B000BDE8F04F09F00CBB70B504468B480068DA
:1018C00009F0DAFA214609F0B9F8714E0446B16A16
:1018D00009F0B1F88649096809F0B3F8054685486A
:1018E0002146006880F0004009F0ABF8294609F075
:1018F000A2F809F0EDFAB46270BD2DE9F0417E491D
:101900000968401A09F0B8FA614C0546A06B09F065
:1019100025FB614F614B3A4609F0B6F909F031FBFE
:101920000646284609F01AFB3A465D4B09F0ACF929
:1019300007460D46304609F011FB3A462B4609F0A2
:10194000FCF809F01EFBA0630546616B09F073F813
:1019500002466A4865630168104609F072F8044659
:1019600067480168284609F06CF8214609F011F82B
:10197000BDE8F04109F0ACBA01466248FFF728BD66
:101980007047704770B50E460146154600245EA0AC
:1019900009F0BAFD05E0315D5EA009F0B5FD641CFB
:1019A000E4B2AC42F7D3BDE870405BA009F0ACBD37
:1019B00070B50E4601461546002458A009F0A4FD56
:1019C00007E000BF56F8241058A009F09DFD641CE4
:1019D000E4B2AC42F6D3BDE8704056A009F094BD25
:1019E00070B50E4601461546002453A009F08CFD43
:1019F0000BE000BF56F8240009F0B0FA02460B468F
:101A000051A009F081FD641CE4B2AC42F2D3BDE800
:101A1000704048A009F078BD2DE9F0410F4601461D
:101A20001D46164600244AA009F06EFD10E000BFD6
:101A300057F824103DA009F067FD56F8240009F07E
:101A40008DFA02460B4640A009F05EFD641CE4B22C
:101A5000AC42EDD3BDE8F04136A009F055BD000021
:101A6000002C0140140000200000214264000020EE
:101A7000600000205C0000200D00002038000020E5
:101A80001C00002018000020A400002008000020F6
:101A9000E0000020A80000209A9999999999E93FBF
:101AA0009999C93F00401C4600401CC624000020F4
:101AB00020000020000020C200002042A0000020E2
:101AC000000016C3000016430000C8420000A041F9
:101AD000AC000020B00000200000C8C26666663F6F
:101AE00000005C429A99193F0000404074000020B9
:101AF0007C0000207800002070000020840000207E
:101B00008000002000440040537472202D20256482
:101B10003A203C00256300003E0D0A00496E7473B4
:101B2000202D2025643A205B0000000025642C2035
:101B3000000000005D0D0A00466C6F617473202D7B
:101B40002025643A205B000025662C200000000060
:101B5000436F6D706F756E64202D2025643A205B95
:101B600000000000014603A009F0CEBC014605A01C
:101B700009F0CABC5B4572726F725D3A25730D0A3B
:101B8000000000005B4C6F73745D3A25730D0A0012
:101B900070B5012188B0084607F031FF0121CD0260
:101BA000284607F02CFF0121402007F028FF0121E3
:101BB000FD4807F0C9FDA810ADF80C00FB4E042449
:101BC0008DF80F4003A9304607F02FFDADF80C50FB
:101BD0008DF80F4003A9304607F027FD684608F04E
:101BE0007AFA00204FF6FF71ADF80410ADF800004E
:101BF000EF4CADF80600ADF802006946204607F04C
:101C0000E5FF00231A460321204608F005FB04A83F
:101C100008F074FA0A20ADF8180004A9204608F06C
:101C20008DF90121204608F0A1FC01221146204631
:101C300008F08AFA0021204608F06FFC01212046B6
:101C400008F06DFA08B070BD10B5012188B00846E3
:101C500007F0DEFE0121042007F0D1FE0320ADF8DD
:101C6000180004208DF81B0006A9D24807F0DDFCFF
:101C7000684608F030FA00204FF6FF71ADF8041006
:101C8000ADF80000ADF80600ADF802004FF080445A
:101C90006946204607F09AFF00231A460321204692
:101CA00008F0BAFA03A808F029FA0A20ADF81400DF
:101CB00003A9204608F042F90121204608F056FC0D
:101CC00001221146204608F03FFA0021204608F084
:101CD00024FC0121204608F022FA08B010BD10B5FE
:101CE00088B00121022007F093FE0121042007F0B3
:101CF00086FEC020ADF8180004208DF81B0006A950
:101D0000AC4807F092FC684608F0E5F900204FF671
:101D1000FF71ADF80410ADF80000A74CADF8060057
:101D2000ADF802006946204607F050FF00231A462E
:101D30000321204608F070FA03A808F0DFF90A2012
:101D4000ADF8140003A9204608F0F8F80121204658
:101D500008F00CFC01221146204608F0F5F900219C
:101D6000204608F0DAFB0121204608F0D8F9B4E754
:101D700010B588B00121042007F04AFE0121082097
:101D800007F03DFEC020ADF8180004208DF81B00C0
:101D900006A98A4807F049FC684608F09CF900202B
:101DA0004FF6FF71ADF80410ADF80000844CADF8AB
:101DB0000600ADF802006946204607F007FF002341
:101DC0001A460321204608F027FA03A808F096F9DE
:101DD0000A20ADF8140003A9204608F0AFF801214D
:101DE000204608F0C3FB01221146204608F0ACF95A
:101DF0000021204608F091FB0121204608F08FF9D0
:101E00006BE710B588B00121082007F001FE012121
:101E1000042007F0F4FD0320ADF8180004208DF82D
:101E20001B0006A9634807F000FC684608F053F958
:101E300000204FF6FF71ADF80410ADF80000614CC2
:101E4000ADF80600ADF802006946204607F0BEFE78
:101E500000231A460321204608F0DEF903A808F003
:101E60004DF90A20ADF8140003A9204608F066F8E1
:101E70000121204608F07AFB01221146204608F095
:101E800063F90021204608F048FB0121204608F0B4
:101E900046F922E7002106281CD2DFE800F01B03E8
:101EA000060C1118424A243207E04FF08042B2F982
:101EB000240091847047404A2432B2F9000004E0C3
:101EC0003F4A2432B2F900004042118070473D4A37
:101ED0002432F2E70020704706281AD2DFE800F02B
:101EE0001903060B0E14324824300FE04FF08040E7
:101EF000B0F9240070473048243007E030482430DF
:101F0000B0F90000404270472E482430B0F900007C
:101F100070470020704710B588B00121022007F0FB
:101F200077FD0121042007F06AFDC020ADF81800FC
:101F300004208DF81B0006A91E4807F076FB6846B2
:101F400008F0C9F800204FF6FF71ADF80410ADF8A5
:101F50000000194CADF80600ADF8020069462046B5
:101F600007F034FE00231A460321204608F054F9F6
:101F700003A808F0C3F80A20ADF8140003A920460E
:101F800007F0DCFF0121204608F0F0FA012211469B
:101F9000204608F0D9F80021204608F0BEFA0121B9
:101FA000204608F0BCF898E6C00016000018014072
:101FB000002C01400008014000040040000C0140DA
:101FC00000080040000C004010B588B0012104203A
:101FD00007F01EFD0121082007F011FDC020ADF81B
:101FE000180004208DF81B0006A9234807F01DFBEC
:101FF000684608F070F800204FF6FF71ADF8041045
:10200000ADF800001D4CADF80600ADF802006946C1
:10201000204607F0DBFD00231A460321204608F086
:10202000FBF803A808F06AF80A20ADF8140003A929
:10203000204607F083FF0121204608F097FA01228D
:102040001146204608F080F80021204608F065FA85
:102050000121204608F063F83FE60948018801881D
:1020600021F0010101807047044810300188018887
:1020700021F0010101807047000C01400008004080
:102080001004004008B50121082007F0B8FC4FF407
:102090007040ADF8000010208DF8030003208DF88B
:1020A000020069462D4807F0C0FA2D480021C0F80B
:1020B000B811C0F8BC11C0F8B411C0F8B41108BD13
:1020C000002800DA4042704730B50023244A01243A
:1020D000002804DAC2F8BC31C2F8B84103E0C2F803
:1020E000BC41C2F8B831FFF7EBFF4FF08045A8873D
:1020F000002904DDC2F8B441C2F8B03103E0C2F8EF
:10210000B431C2F8B0410846FFF7DAFFA5F8400045
:1021100030BD144A1449136848428B4201DA1160F9
:1021200002E0834200DD1060104A13688B4201DA3E
:10213000116070478342FCDD106070470C4A90428A
:1021400005D80C4A904202DC0B48814204DA05496A
:10215000002008600549086070470000000C01403D
:102160000080214200000020A8E4FFFF04000020BE
:10217000000020C2000020429A993141FEB50121A1
:10218000052007F03CFC0824ADF8004010208DF835
:1021900003000320304E8DF802006946304607F0F8
:1021A00044FA0425ADF8005028208DF80300694654
:1021B000304607F03AFA0221002007F0EEFA00203C
:1021C0008DF808008DF8094001208DF80A0001956E
:1021D00001A806F02FFFFEBD70B50A20FEF7ADFE88
:1021E000042006F077FF002826D01C4C0021204652
:1021F00008F093F90121204607F091FF164D0421C4
:10220000284607F06CFA0028F9D10021204607F093
:1022100086FF204608F09FF908F04DFE4FF033325C
:102220000F4B08F031FD08F0ACFE0E490860BDE828
:102230007040042006F05CBF70BD10B5064C08214C
:10224000204607F060FA1420FEF777FE2046BDE82E
:102250001040082107F059BA00080140000400406E
:102260003333FB3F940000207FB50C460546012127
:10227000C80207F0C4FBADF80040ADF804500024DC
:10228000544DADF806408DF80840ADF8024069465F
:10229000284607F09BFC01221146284607F054FF10
:1022A00019208DF80C008DF80D4003208DF80E00DC
:1022B00001208DF80F0003A806F0DFFB012128465E
:1022C00007F02DFF7FBD7FB50C460546012108466E
:1022D00007F09EFBADF80450ADF8004000244FF02D
:1022E0008045ADF80640ADF802406946284607F043
:1022F0006DFC01221146284607F026FF1C208DF8B0
:102300000C008DF80D4003208DF80E0001208DF893
:102310000F0003A806F0B1FB0121284607F0FFFEDD
:102320007FBD7FB50C4605460121022007F070FBFA
:10233000ADF80450ADF800400024274DADF806403C
:10234000ADF802406946284607F040FC01221146DC
:10235000284607F0F9FE1D208DF80C008DF80D4081
:1023600003208DF80E0001208DF80F0003A806F061
:1023700084FB0121284607F0D2FE7FBD7FB50C46C5
:1023800005460121042007F043FBADF80040002082
:10239000ADF80450114CADF80600ADF802006946E6
:1023A000204607F013FC01221146204607F0CCFE20
:1023B0001E208DF80C0001218DF80D108DF80E10E7
:1023C0008DF80F1003A806F058FB0121204607F0F6
:1023D000A6FE7FBD002C0140000400400008004024
:1023E00070B50C46054600F036FAD02000F0CCFA65
:1023F00000F069FA50B9284600F0C6FA00F063FA16
:10240000204600F0C1FA00F05EFA18B100F03FFA81
:10241000012070BD00F03BFA002070BDBC2801D344
:10242000012110E0622801D302210CE02A2801D307
:10243000032108E0142801D3042104E00A2801D371
:10244000052100E006211A20CAE710B504464FF422
:102450007A70844201D9044602E0042C00D204249C
:10246000B0FBF4F0401EC1B21920FFF7B9FF6008BD
:10247000BDE81040D2E710B5044600F0ECF9D020DA
:1024800000F082FA00F01FFA204600F07DFA00F01A
:102490001AFA00F0E0F9D12000F076FA00F013FA11
:1024A000002000F097FA044600F0F1F9204610BD34
:1024B000C006010E1C2093E7C006010E1B208FE70B
:1024C00010B500F0B4F980216B20FFF789FF64207C
:1024D000FEF74AFD00216B20FFF782FF0320FFF784
:1024E000EBFF0020FFF7E4FFC820FFF7AEFF00215D
:1024F0003820FFF775FF00216A20FFF771FF0021E8
:102500002320FFF76DFF80213720FFF769FF75203B
:10251000FFF7B1FF682801D0012010BD01216B2019
:10252000FFF75EFF00216C20FFF75AFFC820FFF77E
:102530008CFF002010BD2DE9F0411D4614460F46CA
:10254000064600F088F97006000E00F01DFA00F053
:10255000BAF920B100F09BF90120BDE8F0813846BE
:1025600000F012FA00F0AFF900F075F9012000EB6D
:102570004600C0B200F008FA00F0A5F908E0012C0E
:102580000CD0012000F026FA641E05F8010BE4B21D
:10259000002CF4D100F07BF90020DEE70020F1E709
:1025A00008B56B46022241216820FFF7C4FFBDF841
:1025B000000040BA00B208F06DFC0022844B08F025
:1025C000D5FB844A844B08F0B8FA08F0DAFC83495A
:1025D00008F037FA08F07CFC00B208BD7CB5144660
:1025E0000D4606466B46062243216820FFF7A3FFEF
:1025F00000280BD1BDF8001049BA3180BDF8021097
:1026000049BA2980BDF8041049BA21807CBD7CB547
:1026100014460D4606466B4606223B216820FFF70E
:102620008AFF00280BD1BDF8001049BA3180BDF8EF
:10263000021049BA2980BDF8041049BA21807CBD36
:102640002DE9F0411E4615460F46044600F003F9F9
:102650006006000E00F098F900F035F960B93846D0
:1026600000F092F900F02FF900240BE0305D00F04B
:102670008BF900F028F918B100F009F901206CE796
:10268000641CE4B2AC42F1D300F001F9002064E72D
:1026900001F017BD01F0C9BC2DE9F05F0746504AB3
:1026A00050495148FFF7B3FF504A51495148FFF78D
:1026B00095FF4B4C4C4DDFF84091DFF840B14FF0A7
:1026C000663897B3474EDFF838A1012F57D0022F55
:1026D00029D14648B0F90000404208F0DBFB4246F1
:1026E0004B4608F043FB08F04CFC0746B5F90000E8
:1026F00008F0D0FB05460C46B6F9000008F0CAFB0E
:102700002A4623460AF0EEF800225B4608F0BCFA9F
:102710003C4A534608F02AFB08F033FC394606F0E1
:10272000A7F839480068BDE8F09FFFE73048B0F9E6
:10273000000008F0AFFB42464B4608F017FB08F0DC
:1027400020FC0646B4F9000008F0A4FB07460C463E
:10275000B5F9000008F09EFB3A4623460AF0C2F89D
:1027600000225B4608F090FA264A284B08F0FEFA51
:1027700008F007FC314605F01DFF2548D2E71D484B
:10278000B0F9000008F086FB42464B4608F0EEFA2E
:1027900008F0F7FB0546B4F9000008F07BFB07469C
:1027A0000C46B6F9000008F075FB3A4623460AF0DD
:1027B00099F800225B4608F067FA124A534608F07F
:1027C000D5FA08F0DEFB294605F0A2FF1148A9E77B
:1027D00000407540A4703D0AD74342400000C84203
:1027E0008C0000208A000020880000209200002039
:1027F000900000208E000020666630400080664019
:10280000FB210940F1D4C85314020020FB2109C068
:10281000BC010020E801002003E00921491E89B223
:10282000FCD2401E80B2F8D270470120F4E708B510
:102830000121082007F0E3F84FF44070ADF80000E4
:1028400010208DF8030003208DF8020069467948B6
:1028500006F0EBFE08BD774810B5001D016821F0B9
:10286000F0010160016841F030010160724B01200C
:10287000C3F8A401C3F8A00103F5D073FFF7CCFFA0
:1028800000245C600120FFF7C7FF1C6010BD694891
:1028900000B5001D016821F0F0010160016841F000
:1028A00030010160644B0020C3F8A001C3F8A4010B
:1028B000012003F5D073FFF7AFFF012018605860C7
:1028C0005DF804EBA8E730B55A480024001D016804
:1028D00021F0F0010160016841F080010160564B78
:1028E0000125C3F8A4512846FFF796FFC3F8A0516D
:1028F0000120FFF791FF07E0641CE4B2FA2C03D932
:10290000FFF7C5FF012030BDD3F824010028F3D123
:10291000C3F8A00130BD10B5474B0024C3F8A04157
:102920004448001D016821F0F0010160016841F098
:1029300030010160C3F8A441012003F5D073FFF713
:102940006BFF01201860FFF767FF1C6010BD30B5FA
:10295000394B0024C3F8A0413648001D016821F01E
:10296000F0010160016841F0300101600125C3F808
:10297000A451284603F5D073FFF74EFF1D600120D8
:10298000FFF74AFF1C6030BDF0B505462948001D21
:10299000016821F0F0010160016841F0300101603F
:1029A000254B0026C3F8A06134460127E809C3F887
:1029B000A4016806050EC3F8A0710120FFF72CFFE3
:1029C000C3F8A0610120FFF727FF641CE4B2082CC4
:1029D000ECD3F0BDF0B5064616480024001D016892
:1029E00021F0F0010160016841F080010160124DA9
:1029F000234627464FF0010CC5F8A0710120FFF7D0
:102A00000BFFC5F8A0C16006040ED5F8240108B17B
:102A1000641CE4B20120FFF7FFFE5B1CDBB2082B55
:102A2000EAD31EB1FFF777FF2046F0BDFFF78FFF17
:102A3000FAE70000000C014000802142F8B5FF4C8D
:102A40000146224694F82460D2E9000200235D1E6C
:102A500056B179B1022111E0C17B10786B46012299
:102A6000FFF7EEFD68B90EE0A67A56B111B1617CB0
:102A700061B902E08DF80030EEE701218DF8001019
:102A8000EAE72846F8BD9DF8000060740020F8BD14
:102A900038B50024E94D18E02968CA7AA24212D05C
:102AA000497DA1420FD000786B4601222146FFF7F5
:102AB00042FD10B14FF0FF3038BD9DF80020214697
:102AC000DFA008F021FD641CE4B268680179A1422E
:102AD000E2D8002038BD0B46D84930B40A684FF020
:102AE000FF34D57A854206D0527D824203D04968B0
:102AF0000A79824202D8204630BC70470C780146E1
:102B0000204630BC0122FFF716BD38B5CB4C054638
:102B100094F82300A84201D1002038BD0DB1302027
:102B200000E000208DF80000A07C28B19DF8000096
:102B300040F002008DF8000094F8220028B19DF8C2
:102B4000000040F080008DF8000020686B460122F4
:102B5000017D60680078FFF773FD10B14FF0FF3022
:102B600038BD84F82350D7E7F8B5054610F0700F4C
:102B70004FF0000601D0012004E015B18DF800608F
:102B800002E040208DF80000AC4C6B46012220682A
:102B9000817C60680078FFF753FD4FF0FF3760BB22
:102BA0009DF8000020F0400020738DF8006068065A
:102BB00002D404208DF80000A80605D49DF800007A
:102BC00040F002008DF80000E80605D49DF80000F2
:102BD00040F001008DF80000280705D49DF80000A2
:102BE00040F038008DF8000020686B460122C17C5F
:102BF00060680078FFF724FD10B1A6723846F8BD72
:102C000025B1082D02D00020FFF77FFFA5722675A1
:102C10003220FEF7A9F90020F8BDF8B5874C05462B
:102C2000A07CA84201D10020F8BD84484FF0FF36B7
:102C30006B46D0E900104FF001020979007835B3F6
:102C4000FFF779FCD8BB9DF800006B4620F0200010
:102C50008DF8000020680122017960680078FFF794
:102C6000EFFC60BB0320FEF77FF902208DF8000027
:102C700094F8220070B382202AE020686B4601227B
:102C8000017D60680078FFF7DBFCC0B92DE0FFF73D
:102C900052FCA0B9A07AC0079DF8000002D040F015
:102CA000200001E020F020008DF8000020686B4635
:102CB0000122017960680078FFF7C2FC08B1304654
:102CC000F8BD0320FEF750F994F8220000B18020EF
:102CD0008DF8000094F823000028CED09DF8000065
:102CE00040F030008DF80000C7E7A5749BE7F8B509
:102CF000524C4FF0FF36A07A00287CD000258DF88A
:102D0000005020686B460122C17B60680078FFF7A5
:102D100097FC00286FD120686B46012241796068DA
:102D20000078FFF78DFC002865D120686B460122F2
:102D3000017960680078FFF783FC00285BD194F884
:102D40002400E0B30C208DF8000020686B460122BF
:102D5000017960680078FFF773FC00287DD132208C
:102D6000FEF702F9C0208DF80000A07AC00702D05B
:102D7000E0208DF8000020686B4601220179606830
:102D80000078FFF75DFC002867D1607C18B1022055
:102D90008DF8000001E08DF8005020686B4601229C
:102DA000C17B60680078FFF74BFC20BB8DF80050BA
:102DB00020686B4601224179606800783DE0FFE7BA
:102DC00004208DF8000020686B46012201796068BC
:102DD0000078FFF735FC70B9A07C88B9A07AC007ED
:102DE0000ED060208DF8000020686B46012201792A
:102DF0006068007800E02BE0FFF722FC40BB01E0B8
:102E00004020EFE73220FEF7AFF8607C18B10120D8
:102E10008DF8000001E08DF8005020686B4601221B
:102E2000C17B60680078FFF70BFC88B92068034B12
:102E3000417960681033012200780AE02401002003
:102E4000252335783A20252335780D0A0000000027
:102E500003E0FFF7F5FB002800D03046F8BD2DE970
:102E6000F041002520F00101FE4C94F8240010B13F
:102E70000020BDE8F081A07A4FF0FF3668B108402D
:102E8000277C2074884200D0354641B10120FFF7ED
:102E9000D5FDFFF72CFF38B127743046E9E7207DD8
:102EA00000B10120FFF7CAFD2846E2E738B5ED4C36
:102EB0004FF0FF35A17A31B3BC2801D3012010E0D7
:102EC000622801D302200CE02A2801D3032008E065
:102ED000142801D3042004E00A2801D3052000E0CF
:102EE00006208DF80000E07A9DF80010884201D19C
:102EF000002038BD20686B46012281786068007828
:102F0000FFF79EFB08B1284638BD9DF80000E0722F
:102F1000EEE72DE9F84305464FF0FF39282844D85D
:102F20000727D04C00267DB10120FFF7EEFD2020C1
:102F30008DF800004FF00108012D17D0052D18D88D
:102F40008DF8018005201FE00020FFF7DEFD8DF8E1
:102F500000608DF8017020686B460222817C6068F9
:102F60000078FFF76DFB00BB267529E08DF8016046
:102F7000E8E7142D04D802208DF801000A2003E0B0
:102F800003208DF801001420FFF790FF9DF8010049
:102F90006B4607EB80108DF8010020680222817CCF
:102FA00060680078FFF74CFB10B14846BDE8F88335
:102FB0000820A072267384F814800020FFF74FFFCA
:102FC0000020F3E7F8B5A74D04464FF0FF37A87A85
:102FD00048B395F8240030BB287D4FF47A7648B189
:102FE00064B1282C03D8E0B2FFF793FF26E000205D
:102FF000FFF78FFF042C05D2042406E00020FFF722
:1030000088FFF9E7B44200D93446B6FBF4F0401E1D
:103010008DF8000028686B460122417868680078C6
:10302000FFF70EFB08B13846F8BD9DF80000401CC4
:10303000B6FBF0F0E8814008FFF738FF0020F8BD4C
:1030400038B5884C4FF0FF35A17A19B3022806D065
:10305000042806D008280ED010281BD10DE000202F
:1030600000E008208DF80000607A9DF80010B0EBB9
:10307000D10F04D005E01020F4E71820F2E700207B
:1030800038BD20686B460122C17960680078FFF77F
:10309000D7FA08B1284638BD9DF80000C008607214
:1030A000EDE738B56F4C4FF0FF35A17A31B3FA2810
:1030B00009D0B0F5FA7F08D0B0F57A7F0FD0B0F51F
:1030C000FA6F1BD10DE0002000E008208DF8000011
:1030D000207A9DF80010B0EBD10F04D005E010204D
:1030E000F4E71820F2E7002038BD20686B46012283
:1030F000817960680078FFF7A3FA08B1284638BDE7
:103100009DF80000C0082072EDE72DE9FC41554C08
:1031100080208DF8000020686B460122817C606869
:103120000078FFF78DFA4FF0FF37002832D1642086
:10313000FDF71AFF00258DF8005020686B4601222C
:10314000817C60680078FFF77BFA002870D12068E6
:103150006B460622817D60680078FFF7ECF9002855
:1031600066D19DF805009DF80310C007400F01F0DF
:10317000010140EA41019DF801004FF0010600F015
:103180000100014309D0012905D0022915D036A03C
:1031900008F0BAF94CE0E67410E020686B460122B2
:1031A000C17860680078FFF7C6F940BB9DF8000061
:1031B00010F00F0020D0042822D0E574FF2004F87E
:1031C0000A0F4FF6FF7104F8020C04F8010C60704E
:1031D000A180A0712072A67026766576E572A57230
:1031E000E56025616561A576E576A5834FF4FA6013
:1031F000FFF757FF18B907E0254808F085F917E0F1
:1032000024A008F081F9C6E70220FFF719FF78B97A
:103210002A20FFF74BFE58B93220FFF7D3FE38B90A
:103220000020FFF71CFE18B90020FFF7F6FC10B1D4
:103230003846BDE8FC810020FFF796FC0020F8E747
:1032400070477CB5044607484FF0FF35817A11F08E
:10325000700F32D0016840686B46097B0078062207
:1032600028E0000024010020556E737570706F72A5
:1032700074656420736F6674776172652070726F15
:1032800064756374207265762025642E0A00000040
:10329000F8F8000848616C662073656E736974699C
:1032A00076697479207061727420666F756E642E11
:1032B0000A000000FFF73FF908B128467CBDBDF8C1
:1032C000000040BA2080BDF8020040BA6080BDF81E
:1032D000040040BAA08000207CBD7CB50446FE48B6
:1032E0004FF0FF35817A090708D5016840686B46C1
:1032F000497B00780622FFF71EF908B128467CBDFD
:10330000BDF8000040BA2080BDF8020040BA6080DD
:10331000BDF8040040BAA08000207CBDF8B5EE4C9A
:1033200006464FF0FF35A07A40B120686B46022276
:10333000817B60680078FFF7FEF808B12846F8BD89
:10334000BDF80000646840BA05B2E08807F09DFD52
:103350000746B4F9080007F08FFD0446284607F039
:103360008BFD214607F067FB394607F09CFBDB49E4
:1033700007F00FFB102107F0D4FB07F0A9FD306028
:103380000020F8BD2DE9FC4104004FF0FF3862D069
:10339000206820B9606810B9A06800285CD0CE4DC4
:1033A00003226B46686811460078FFF7C4F8E0BB5B
:1033B0009DF80010082000EB111101F00F029DF89C
:1033C00001109DF8023000EB111100EB131023687F
:1033D00040325B0093FBF2F217B2626801F00F011A
:1033E0005200403192FBF1F10EB2A16800F00F00E3
:1033F0004900403091FBF0F004B2686806226B4649
:1034000000781146FFF797F878B9BDF80000BDF8CD
:10341000021040BABDF80420384449BA52BA030A2F
:10342000314422448DF8003000E014E08DF80100B2
:10343000080A8DF80200100A8DF804008DF80310B8
:103440008DF80520686806226B4600781146FFF764
:10345000F7F8002800D04046EBE69F49097A39B1D9
:10346000012907D002290AD003290BD0002103E04B
:10347000FA2101E04FF4FA710180002070474FF407
:103480007A71F9E74FF4FA61F6E793494A7A42B163
:10349000012A08D0022A0FD0032A0FD04FF0FF30A4
:1034A0007047022200E004220270C97C11B11106AB
:1034B000C90D0170002070470822F5E71022F3E7DC
:1034C0008549C97A072913D2DFE801F01204060AF8
:1034D0000C0E1000BC2100E062210180002070472A
:1034E0002A21FAE71421F8E70A21F6E70521F4E793
:1034F0000021F2E7784991F8242012B14FF0FF3013
:103500007047C98901800020704700210180481E52
:1035100070474FF0FF3070476F49097A41B1012978
:1035200008D002290AD003290AD04FF0FF30704793
:103530006B4900E06B490160002070476A49FAE777
:103540006A49F8E764494A7A42B1012A09D0022A55
:1035500011D0032A12D04FF0FF3070474FF4804251
:1035600001E041F69C720280C97C11B1C2F34E01A8
:103570000180002070474FF48052F4E74FF400625E
:10358000F1E75549097C0170002070475249897A5A
:1035900001B1012101700020704738B54E4A044640
:1035A0004FF0FF35907A40B110686B46017C50684F
:1035B00002220078FEF7BFFF08B1284638BDBDF8EB
:1035C000000040BA2080002038BD2DE9FE4F814622
:1035D00041488846002490F824101E4625464FF0A6
:1035E000FF3BC9BB00213170817AA9B3017C99B33B
:1035F0004A0600D502248A0600D5A41CCA0600D5B6
:10360000A41C090700D5A41D016882464068897A78
:103610006B4600780222FEF78EFFE8B9BDF8000085
:1036200047BAA74264D3DAF804004188B7EB510FD8
:1036300013D9DAF8001000786B46497C0122FEF7B6
:103640007AFF48B99DF80000C00606D5FFF74FFB8A
:103650006FF00100BDE8FE8F0AE0DAF80010DAF83A
:1036600004006B46C97A00782246FEF764FF08B171
:103670005846EFE7B7FBF4F00C99401E08700020A5
:103680003070ACB39AF8101050460A07694613D54B
:10369000BDF80020062552BAA8F80020BDF8022087
:1036A00052BAA8F80220BDF8042052BAA8F80420A3
:1036B000327842F008023270A5420CD0027C5206E9
:1036C00009D54A19AD1C128852BAA9F800203278DF
:1036D00042F0400232700CE02401002000000C4255
:1036E00000000343000083423333034233338341FA
:1036F0001DE0A5420CD0027C920609D54A19AD1CEA
:10370000128852BAA9F80220327842F020023270B0
:10371000A5420CD09AF81000C00608D548190088B8
:1037200040BAA9F80400307840F010003070002052
:1037300090E72DE9F843FB4C0646174694F8240021
:1037400089464FF0FF3888B3A07A78B320686B467B
:103750000222817A60680078FEF7EDFE30BBBDF88A
:10376000000045BAB54202D2002038701EE0606801
:103770004188B5EB510F10D9216800786B46497C20
:103780000122FEF7D8FE88B99DF80000C00604D5D6
:10379000FFF7ADFA6FF0010008E42068F2B24B4683
:1037A000C17A60680078FEF7C6FE08B1404608E4BA
:1037B000B5FBF6F0401E38700020EDE7D94981F8DE
:1037C0002200002070472DE9FE4F05460120D54E0E
:1037D0008DF800004FF000088DF8018030680C462D
:1037E0001746817C70686B4602220078FEF728FF3E
:1037F0004FF0FF3A00287AD1C820FDF7B5FB8DF8CD
:10380000008030686B460122C17B70680078FEF74B
:1038100017FF0028EFD130686B46012241797068AC
:103820000078FEF70DFF0028E5D130686B460122D5
:10383000817C70680078FEF703FF0028DBD13068D8
:103840006B460122C17D70680078FEF7F9FE002802
:10385000D1D130686B460122017970680078FEF79B
:10386000EFFE0028C7D14FF00C098DF800903068AA
:103870006B460122017970680078FEF7E1FE0028AE
:1038800035D10F20FDF770FBB06A6B460122407AFC
:103890008DF800003068817870680078FEF7D0FEFF
:1038A000002824D1B06A6B460122007A8DF800000E
:1038B0003068417870680078FEF7C2FE002874D145
:1038C000B06A807A0FB140F0E0008DF800003068F7
:1038D0006B460122817970680078FEF7B1FE0028FE
:1038E00063D12FB1B06AC07A40F0E00001E049E056
:1038F00018208DF8000030686B460122C17970688D
:103900000078FEF79DFEE8BB17B1C820FDF72CFB41
:1039100040208DF8000030686B4601220179706804
:103920000078FEF78DFE68BB78208DF800003068C7
:103930006B460122417970680078FEF781FE08BB72
:103940003220FDF711FB8DF80080306847466B464A
:103950004179706801220078FEF772FE90B93168F3
:103960007068B046897A00786B460222FEF7E3FD64
:1039700040B9BDF80000AF6040BAB0FBF9F0C6B284
:103980006F6000E011E02F60A7606760276000278C
:1039900039E000BFD8F80010D8F804006B46C97AA7
:1039A00000780C22FEF7C7FD08B1504652E6BDF87C
:1039B0000000236840BA00B2BDF80210BDF8042030
:1039C0001844206049BA606809B20844606052BA7D
:1039D000A06812B21044A060BDF806002B6840BA7F
:1039E00001B2BDF80800BDF80A201944296040BAA8
:1039F000696800B20844686052BAA86812B21044FC
:103A00007F1CFFB2A860B742C4D328688322C117C5
:103A1000090441EA10410004002306F04DFF32463C
:103A2000002306F049FF286068688322C117090453
:103A300041EA10410004002306F03EFF3246002315
:103A400006F03AFF6860A8688322C117090441EABA
:103A500010410004002306F02FFF3246002306F039
:103A60002BFFA86020684FF40065C117090441EAE4
:103A7000104100042A46002306F01EFF32460023B0
:103A800006F01AFF206060682A46C117090441EA5F
:103A900010410004002306F00FFF3246002306F019
:103AA0000BFF6060A0682A46C117090441EA104173
:103AB0000004002306F000FF3246002306F0FCFE5F
:103AC000A060002802DDA0F5803001E000F5803024
:103AD000A0600020BEE538B5124C94F82410814255
:103AE0001ED0002518B394F82500E8B10020FEF799
:103AF000A5FF0020FFF791F8E08CFFF763FA8DF83F
:103B0000005060686B46012200782321FEF798FD83
:103B1000012084F82400FEF791FF00BFFFF7E7F8CB
:103B2000002038BD240100204FF0FF30F9E70020CD
:103B3000FEF784FF207C8DF8000060686B46012250
:103B400000782321FEF77CFD84F82450E6E72DE978
:103B5000F047FA4C82468AB094F824000F4620B110
:103B60000020FFF7B8FF012600E0002607A8FFF7B6
:103B700074FC06A8FFF789FC09A8FFF7A1FC08A8B8
:103B8000FFF7B8FC94F80A9094F810800025002202
:103B900039465046FFF717FE10B16D1C022DF6DBBB
:103BA000022D1AD00025012203A96846FFF70BFE5B
:103BB00010B16D1C022DF6DB022D0ED003A9384684
:103BC00000F047FBC7B26946504600F07BFB10F09F
:103BD000FF0F4FF0000502D002E0002503E00125B1
:103BE0000FB945F00205FF2020726072E0724FF6B7
:103BF000FF71E181A072207401202073BDF81C00C8
:103C0000FFF74FFA9DF81800FFF71AFABDF82400E5
:103C1000FFF74CF9BDF82000FFF7D4F94846FEF74E
:103C2000A3FF4046FFF71BF916B10120FFF753FF32
:103C30000AB02846BDE8F087F8B516000D464FF0EB
:103C4000FF371FD0BD4CA17AE1B1010A8DF80010F9
:103C5000C0B28DF80100411960684289914211D8C3
:103C6000216800786B46097E0222FEF7E9FC48B91C
:103C70002068EAB23346417D60680078FEF7E0FCD8
:103C8000002800D03846F8BDF8B516000D464FF0B4
:103C9000FF371FD0A94CA17AE1B1010A8DF80010BD
:103CA000C0B28DF80100411960684289914211D873
:103CB000216800786B46097E0222FEF7C1FC48B9F4
:103CC0002068EAB23346417D60680078FEF733FC35
:103CD000002800D03846F8BD2DE9FF4FDFF85C82A0
:103CE000064685B098F8250015460F464FF0FF3977
:103CF000B0BBAFB3002420E0301B102800DD102043
:103D000080B283463A19014692462046FFF794FF57
:103D100030BB6A4659462046FFF7B6FF00BB504607
:103D20005A46694606F012FE20B16FF0010009B054
:103D3000BDE8F08F04EB0B0084B2B442DCD3280A58
:103D40008DF810008DF81150D8F80000444604ABEF
:103D5000817ED8F8040002220078FEF771FC08B1D9
:103D60004846E4E7012084F825000898E084002014
:103D7000DDE7724991F824100170002070474FF080
:103D8000FF3070474FF0FF3070474FF0FF30704703
:103D90002DE9F84F694C0F4604F1160115004FF05C
:103DA000FF3B8A464FF000094FF0010877D0B0F58D
:103DB000FF5F01D9FF2605E0202801D2012601E09E
:103DC000C0F3471607B90127282D6AD8607DF0B9DE
:103DD00094F8240028B10020FFF77DFE84F82080AD
:103DE00001E084F820905046FFF737FB5348183025
:103DF000FFF74BFB51481A30FFF762FB4F481C306E
:103E0000FFF778FBA07AA0774C48217CC17700208F
:103E1000FEF714FE0020FFF77CF88DF80090206874
:103E20006B460122817860680078FEF709FC002863
:103E300037D140208DF8000020686B460122C17BFD
:103E400060680078FEF7FCFB50BB8DF800608DF8D1
:103E5000017020686B460222017A60680078FEF7E4
:103E6000EFFBE8B90520FDF77FF8607A072606EB3F
:103E7000C0008DF8000020686B460122C17960689F
:103E80000078FEF7DDFB58B920208DF80000012DE9
:103E900008D0052D0AD840468DF801800DE01DE0C0
:103EA0001FE049E048468DF8019006E0142D01D846
:103EB000022000E003208DF80100C0B206EB801064
:103EC0008DF8010020686B460222817C60680078D2
:103ED000FEF7B6FB28B984F8158027E000200A5CBD
:103EE0003AB3FF2020726072E0724FF6FF71E181F9
:103EF000A072207484F80C80A07FFEF735FEE08A63
:103F0000FFF7CFF8207EFFF79BF8608BFEF7CEFF20
:103F1000A08BFFF757F8E07FFEF7A1FF94F8200091
:103F200010B10120FFF7D7FD84F815900020BDE8FF
:103F3000F88F401C0C28D2D35846F8E72401002003
:103F400010B588B0694604A8FFF701FE072802D023
:103F5000012008B010BD07A8FFF7DEFA049806F0AC
:103F60008BFF07990C4606F06CFD06F0B1FF04903C
:103F7000059806F081FF214606F063FD06F0A8FFD4
:103F80000590069806F078FF214606F05AFD06F0E7
:103F90009FFF069004A800F0DCFA03A8FFF7D2FA0E
:103FA000BDF80C00009941430091019941430191F2
:103FB000029941436846029100F02DFB0020C8E7BA
:103FC00090F90010002902DD4FF00000704702DA7E
:103FD0004FF00400704790F90110002902DD4FF006
:103FE0000100704702DA4FF00500704790F90200B7
:103FF000002802DD4FF00200704702DA4FF00600A1
:1040000070474FF00700704700B50246FFF7D8FF32
:104010000346D01CFFF7D4FF43EAC003901DFFF70F
:10402000CFFF43EA801080B200BD10B5FEF7FFFB62
:10403000FFF76BF808B10A2010BD7820FEF794FD59
:1040400010F0FF0F01D0012010BD7820FEF707FF10
:1040500010F0FF0F01D0022010BD6420FEF7B2FF68
:1040600010F0FF0F01D0032010BD00F0EFF910F0A9
:10407000FF0F01D0042010BDEA48FFF7C5FF00F094
:10408000EDF910F0FF0F01D0052010BD40F27310C4
:1040900000F038FD10F0FF0F01D0062010BD6420A5
:1040A00000F020FB10F0FF0F01D0072010BDFFF73C
:1040B00047FF0120FFF70FFD10F0FF00F6D00920A9
:1040C00010BD2DE9F74F8EB00CA902A8CDE9000173
:1040D0000BAB03AA09A907A800F01FFEBDF8080052
:1040E000C0057DD5039806F0C7FE6FF01D0421467C
:1040F00006F017FD8246049806F0BEFE214606F043
:1041000010FD8146059806F0B7FE214606F009FD30
:104110008046069806F0B0FE214606F002FD0546F0
:104120000121504606F0FDFC0646414606F089FC9A
:1041300004464FF04041484606F083FC07462946B6
:1041400006F07FFC214606F024FC06F007FF08F08D
:1041500081F94FF0663B5A46B34B06F095FD06F0E9
:1041600010FF0E9908600121404606F0DAFC414636
:10417000009006F066FC04463846494606F061FCAD
:10418000214606F058FC4FF07E5106F002FC06F086
:10419000E5FE07460C463046494606F052FC064608
:1041A0002946009806F04DFC314606F0F2FB06F079
:1041B000D5FE3A46234608F095FB5A469A4B06F040
:1041C00063FD06F0DEFE0F9908602946084606F0FA
:1041D00038FC07464146084606F033FC064600E038
:1041E00035E04946084606F02CFC04465146084690
:1041F00006F027FC214606F0CCFB314606F01BFCFE
:10420000394606F018FC06F0A9FE06460C4629467B
:10421000504606F016FC05464146484606F011FC9D
:10422000294606F0B6FB012106F07BFC06F096FE5F
:104230003246234608F056FB5A467B4B06F024FDD7
:1042400006F09FFE10990860002011B070E5022072
:10425000FBE72DE9FE4F07460E460025684600F0B5
:1042600090F800246FF00F0AE8464FF0010900BFF4
:1042700057F8240056F82410401A00D5404206F0A2
:10428000FBFD514606F04DFC58F8241011F0FF4F8D
:104290000BD006F008FC4FF07E5106F0CCFB6349D2
:1042A00020F00040884205DC07E06149084461498C
:1042B000884202D309FA04F00543641C032CD7DBBF
:1042C000284607E42DE9F84F8146564888462C38A1
:1042D000002540686B46032200780D21FEF72BF97C
:1042E00008B1072023E69DF80000002400F01F001D
:1042F0008DF800009DF801006FF00F0B00F01F001B
:104300008DF801009DF802006E4600F01F008DF848
:1043100002004FF0010A00BF59F8241058F8240099
:10432000081A00D5404206F0A7FD594606F0F9FBF1
:104330000746305DC0B1404802E0404906F081FBCD
:10434000315D491E11F0FF013155F6D10146384665
:1043500006F0A9FB4FF07E5106F06DFB334920F0CB
:104360000040884205DC07E035483844B0F1D97F89
:1043700002D90AFA04F00543641C032CCCDB28465E
:10438000D5E52DE9FE430646264801AB2C3804222C
:1043900040680D210078FEF7CEF810B10720BDE887
:1043A000FE839DF804101C2000EAD1029DF807103E
:1043B000DFF89090C1F301131A438DF800209DF8A7
:1043C0000520C1F3810300EAD2021A438DF80120CF
:1043D0009DF8062001F0030100EAD2000843002402
:1043E000194F8DF80200A0466D46285D10B146F8C1
:1043F00024900AE046F824800DE000BF56F824001F
:10440000394606F01EFB46F82400285D401E10F0D9
:10441000FF002855F2D1641CE4B2032CE5D3002040
:10442000BDE700005001002066A64C40295C0F3E0D
:10443000666666C19A99D9000000C84154E3853F79
:104440000000E0BE7B14AE3E1D5A843FC8234FF4EB
:104450008062FE4940F6F630FFF73EBC2DE9FF4191
:104460000446FBA004F0030300680290F9A0006872
:104470000390F9A00668F9A0056802A8C15C8DF850
:104480000010C4F3C101425C8DF80120C4F3811215
:10449000805C8DF8020003A8C35C8DF80430415C99
:1044A0008DF80510805C8DF806006A46032140F205
:1044B0002640FFF7C1FB4FF0FF37E0BB01AA032105
:1044C00040F22A40FFF7B8FBA8BBCDE900656007C2
:1044D0000BD59DF8000040F001008DF800009DF81C
:1044E000040040F001008DF80400A0060BD59DF8F3
:1044F000010040F001008DF801009DF8050040F03A
:1045000001008DF80500E0050BD59DF8020040F094
:1045100001008DF802009DF8060040F001008DF8C2
:1045200006006A4603214FF48860FFF785FB10B947
:1045300001AA032100E004E040F23140FFF77CFBD8
:1045400018B1384604B0BDE8F081C54804810020A8
:10455000F8E7F8B5C249098901F0030250F8224092
:104560004A0700D56442C1F3C1028B0650F82220ED
:1045700000D55242C1F3811350F82330C80500D54D
:104580005B42B84984FB0140850045EA947082FB98
:104590000142A40F44EA820483FB0121950F45EAFE
:1045A0008105010E8DF80010010C8DF80110010A33
:1045B0008DF802108DF803006A4604214FF47470E0
:1045C000FFF73AFB4FF0FF3688B9200E8DF8000058
:1045D000200C8DF80100200A8DF802008DF80340B0
:1045E0006A4604214FF47570FFF726FB08B1304688
:1045F000F8BD280E8DF80000280C8DF80100280A5F
:104600008DF802008DF803506A4604214FF476704D
:10461000FFF712FBF8BD2DE9FF41044603A8FEF7A2
:1046200091FFBDF80C00410CC3038D48008900F0D8
:10463000030254F82250420700D56D42C0F3C10274
:10464000860654F8222000D55242C0F38116C005D8
:1046500054F8264000D56442A5FB0367E81700FB29
:10466000037005FB0100850045EA9670A2FB036715
:10467000D51705FB037502FB0152950045EA9672BA
:10468000A4FB0367E51705FB037304FB01318B00F3
:1046900043EA9671030E8DF80030030C8DF801305B
:1046A000030A8DF802308DF80300100E8DF8040017
:1046B000100C8DF80500100A8DF80600080E8DF814
:1046C0000800080C8DF80900080A8DF80A008DF81A
:1046D00007208DF80B106A460C214FF42570FFF768
:1046E000ABFA2FE730B504465FA285B007CA8DE864
:1046F00007004FF0FF35C82C16D8C820B0FBF4F1E6
:10470000491E080A8DF80C008DF80D1003AA02212D
:1047100040F21620FFF790FA30B96A460C2140F6B5
:10472000C120FFF789FA10B1284605B030BD4C48CA
:1047300084810020F9E74A49898901800020704777
:104740002DE9FC41054640074FF0FF367CD0B1F51E
:10475000C86F79D8084606F098FB464906F0A3F9D9
:10476000074601A8FEF791FE9DF80400022806D036
:1047700004280DD008282ED0102865D134E00E2151
:10478000384606F0CEF906F0BCFB84B23A4907E0A1
:104790000D21384606F0C5F906F0B3FB374984B25F
:1047A000384606F04EF906F0ACFB210A8DF80010F1
:1047B00080B28DF80140010A8DF802108DF80300D7
:1047C000E8076C4620D0224602214FF4EA70FFF73A
:1047D00033FAC8BB11E00C21384606F0A2F906F006
:1047E00090FB84B22649DBE70B21384606F099F9A5
:1047F00006F087FB84B22349D2E7A21C02214FF4C2
:104800009270FFF719FAF8B9A8070DD56A46022188
:104810004FF4EC70FFF710FAB0B9A21C02214FF46C
:104820009470FFF709FA78B9680731D56A46022112
:104830004FF4EE70FFF700FA30B9A21C02214FF4DA
:104840009670FFF7F9F91FE01FE0000058CC000850
:104850004CCD6C000CC92C003656760026466600FE
:10486000D820002009E3CA02FEF2ABC4AAF1DFDFC0
:10487000BBAFDFDF00004843000040460000C045FA
:10488000000040450000C04410B13046BDE8FC8146
:104890000020FBE708B500218DF80010C10702D009
:1048A00030218DF80010810705D59DF8001041F0EA
:1048B0000C018DF80010400705D59DF8000040F070
:1048C00003008DF800006A4601214FF4A470FFF741
:1048D000B3F908BD08B560B1042800D90420401E12
:1048E0008DF800006A46012140F24F10FFF7A4F94D
:1048F00008BD0120F3E70521B0FBF1F008B5010A7E
:104900008DF800108DF801006A4602214FF4EF7017
:10491000FFF792F908BD0521B0FBF1F008B5010AD7
:104920008DF800108DF801006A4602214FF4ED70F9
:10493000FFF782F908BD4FF47A7290FBF2F008B5E8
:104940004843010E8DF80010010C8DF80110010A8A
:104950008DF802108DF803006A4604214FF4AE7002
:10496000FFF76AF908BD0521B0FBF1F008B5010AAF
:104970008DF800108DF801006A4602214FF4AD70E9
:10498000FFF75AF908BD0521B0FBF1F008B5010A9F
:104990008DF800108DF801006A4602214FF4AC70CA
:1049A000FFF74AF908BD38B504004FF0FF3506D0CF
:1049B0006A4604214FF45870FFF766F908B128469B
:1049C00038BDBDF800009DF8021040BA000440EA6E
:1049D00001209DF8031008432060002038BD08B571
:1049E000010E8DF80010010C8DF80110010A8DF8F0
:1049F00002108DF803006A4604214FF45870FFF747
:104A00001BF908BD38B504004FF0FF3506D06A46E3
:104A100004214FF47170FFF737F908B1284638BD0B
:104A2000BDF800009DF8021040BA000440EA0120E1
:104A30009DF80310084300EB8000800020600020F8
:104A400038BD1421B0FBF1F008B5010E8DF800104F
:104A5000010C8DF80110010A8DF802108DF8030089
:104A60006A4604214FF47170FFF7E6F808BD08B5F7
:104A700060B120208DF8000028208DF80100302042
:104A80008DF8020038208DF8030004E0A3220421F1
:104A9000684605F042FF6A46042140F69E20FFF773
:104AA000CBF8FEF724F908BD08B560B1C0208DF839
:104AB0000000C2208DF80100C4208DF80200C6203D
:104AC0008DF8030004E08B220421684605F025FFE1
:104AD0006A46042140F69820FFF7AEF8FEF707F982
:104AE00008BD0EB54FF4976310B1E8A107C901E006
:104AF000E9A207CA8DE807006A4609211846FFF7B0
:104B00009BF80EBD3EB5044602208DF80000CA2079
:104B10008DF80100E3208DF8020009208DF80300D4
:104B20006A4604216820FFF787F8A3208DF800006B
:104B3000610609D5C0218DF80110C8218DF8021039
:104B4000C2218DF8031005E08DF801008DF80200F8
:104B50008DF8030014F4C07F09D0C4218DF804102F
:104B6000CC218DF80510C6218DF8061005E08DF8D2
:104B700004008DF805008DF806008DF808008DF80A
:104B800007008DF809006A460A2140F6A720FFF7C2
:104B900053F8A0074FF0D80503D020208DF800006F
:104BA00001E08DF800506A46012140F6B620FFF77B
:104BB00043F8A00601D5012000E00020FFF791FF97
:104BC00014F4C07F1ED0E0050AD5B2208DF8000095
:104BD0008B208DF80100B6208DF802009B2009E0A3
:104BE000B0208DF8000080208DF80100B4208DF8F1
:104BF000020090208DF803006A46042140F6A220AE
:104C0000FFF71AF8E1074FF40B6022D0F8218DF876
:104C100000106A460121FFF70FF8FA210720FFF77D
:104C20008FFD0720FFF736FE0120FFF753FE6420BB
:104C3000FFF761FE4FF4FA70FFF76DFEC821994847
:104C4000FFF779FE2820FFF78EFE0A20FFF79BFE74
:104C500005E08DF800506A460121FEF7EDFFA00740
:104C600003D5D9208DF8000001E08DF800506A4688
:104C7000012140F23D70FEF7DFFF600701D5012002
:104C800000E00020FFF710FFE00601D5012000E062
:104C90000020FFF7ECFE844D44F008006881FEF729
:104CA00026F80020A873600601D50620A87314F426
:104CB000C07F02D0A87B801DA87314F0140F02D00F
:104CC000A87B1030A873A00702D0A87B001DA87392
:104CD00000203EBD7449498901800020704700B51D
:104CE00072A187B00EC98DE80E0073A10DF10C0CF6
:104CF0000EC98CE80E0040F68223012807D0022856
:104D000003D04FF0FF3007B000BD6A4600E003AAB1
:104D10000B211846FEF790FFF5E72DE9FF4F89B00C
:104D20001746DDE9165200245F4E884681462C80E6
:104D3000A246B07B6946FEF7FCFC4FF0FF3B18B182
:104D400058460DB0BDE8F08F708910F0140F4CD0AC
:104D5000BDF800109DF8022049BA090441EA022377
:104D60009DF803100B433B60BDF804109DF806202E
:104D700049BA090441EA02229DF807101B140A43AC
:104D80007A60BDF808109DF80A4049BA090441EA62
:104D900004219DF80B4012142143B960BDF80C406A
:104DA0009DF80EC064BA240444EA0C2C9DF80F4010
:104DB00009144CEA040CC7F80CC04FEA2C475B43BB
:104DC000494302FB023207FB071111441024A1F1F1
:104DD0007061B1F1007F04D9FDF789FFA5F800A04B
:104DE000AEE7298841F4807129804206694611D5D1
:104DF0000A19A41D13885BBAA8F8003053885BBA5F
:104E0000A8F80230928852BAA8F804202A8842F002
:104E100008022A8010F4C07F11D00A19A41D13883B
:104E20005BBAA9F8003053885BBAA9F802309288BF
:104E300052BAA9F804202A8842F070022A8080071A
:104E400016D00C44E07800F0C00500F03F01607817
:104E5000C00706D0C80801F007013268491C02B13A
:104E600090476078000703D5716809B1A8098847A1
:104E70000C98FEF7E5F9002063E70B490860002075
:104E8000704709494860002070470000B8AAB38DF8
:104E9000B4980D355D000000B8AAAAAAB088C3C5B1
:104EA000C700000009E3CA02D8200020D8B1B9F336
:104EB0008BA391B609B4D900DAB1B9F38BA391B63B
:104EC000DAB4DA002DE9F047F74E05464FF4804991
:104ED00000294946304602D004F015FC01E004F0F8
:104EE00014FC4FF400484146304604F00EFCEF4FEE
:104EF00000241021384604F008FC28064FF0200159
:104F0000384602D504F0FFFB01E004F0FEFB10215F
:104F1000384604F0F8FB6806641C050EE4B2082C61
:104F2000E7D34146304604F0EEFB49463046BDE843
:104F3000F04704F0E8BB20B1012805D10021A720EB
:104F4000C0E70021A620FBE7704710B550B101284B
:104F50000FD10021C020FFF7B5FF0021A020BDE840
:104F60001040AFE70021C820FFF7ACFF0021A120CF
:104F7000F5E710BD10B500218D20FFF7A3FF00213C
:104F80001420FFF79FFF0021BDE81040AF2099E7F4
:104F900010B500218D20FFF795FF00211020FFF7AD
:104FA00091FF0021BDE81040AE208BE770B5C04EE8
:104FB000002400BF04F1B000C0B20021FFF782FF5F
:104FC00000210846FFF77EFF00211020FFF77AFF3F
:104FD0005FF0000506EBC5000121005DFFF772FFE1
:104FE0006D1CEDB2802DF5D3641CE4B2082CE1D326
:104FF00070BD10B50021AE4B0A46002003EBC00483
:10500000401CC0B262548028F8D3491CC9B2082998
:10501000F3D310BD30B5CC0801F0070301259D4046
:10502000EBB2A34D05EBC005C808285C0AB11843D4
:1050300002E063EA0000C043285530BD2DE9FC4F73
:10504000151A4FF0000C5E1A009067468B464FF021
:10505000FF30002D02DD4FF0010102E003D14FF0DF
:1050600000018A4602E08246C5F10005002E02DDFD
:105070004FF0010002E003D14FF00000814602E052
:105080008146C5F10006B54201DD2C4600E03446FC
:10509000601C4FF00008019018E000BF00980BF072
:1050A000FF01C0B20B9AFFF7B5FFAC443744A445EB
:1050B00004DD0098ACEB040C50440090A74201DDE5
:1050C0003F1BCB4408F101001FFA80F80199884585
:1050D000E4DBBDE8FC8F2DE9F04F16460F46844611
:1050E0000025144602FB06F853E000BFA7EB0409B5
:1050F0000CEB050B09F0FF010BF0FF000122FFF79D
:1051000089FFACEB050A09F0FF010AF0FF0001225C
:10511000FFF780FF07EB040909F0FF010AF0FF0029
:105120000122FFF777FF09F0FF010BF0FF000122DA
:10513000FFF770FF07EB050B0CEB04090BF0FF0109
:1051400009F0FF000122FFF765FFA7EB050A0AF04F
:10515000FF0109F0FF000122FFF75CFFACEB04093F
:105160000AF0FF0109F0FF000122FFF753FF0BF0E7
:10517000FF0109F0FF000122FFF74CFF6D1C05FB4A
:1051800005F004FB040006FB1600002801DD641E88
:105190006D1E600060434045A8DABDE8F08F2DE940
:1051A000F84F1C460F4681468A460090082B0DD0CA
:1051B000600700D0012000EBD40061084843C0B272
:1051C000203A804602F0FF0B002549E00620F7E771
:1051D000082C12D00C2C16D0102C18D0182C41D121
:1051E00034490BEBCB0000BF01EB80004FF0000C0B
:1051F000465DF0070FD00A9A10E02F490BEB4B00E9
:1052000001EB4000F2E70BEB4B002C49ECE72C499B
:1052100001EB0B10EAE70A9830B300223946484602
:10522000FFF7F8FE7F1C0CF1010C76080CF0FF0C68
:10523000FFB2BCF1080FDCD309F1010000F0FF0957
:10524000082C0AD00099A9EB0100B0EB540F04D14F
:105250000AF10800894600F0FF0A6D1C5746EDB2BE
:105260004545B5D3BDE8F88F0122D7E72DE9F841D0
:105270001E46154688460446079F0BE033464146C6
:1052800020460097FFF78BFF082E0AD004EB56004C
:10529000C4B26D1C2A78A2F120005E28EED9BDE8C8
:1052A000F881A41DE4B2F4E700100140000C0140B5
:1052B000E8200020DAE400084ED8000876DA00087A
:1052C000EADE00080246012000E05043491EC9B250
:1052D000FBD270472DE9F84F0025DDE90A691F462A
:1052E00092468B468046082E00D1022500241CE001
:1052F000381B401EC1B20A20FFF7E4FFBAFBF0F0F2
:105300000A21B0FBF1F201FB1200CDF8009078B158
:105310003030C2B205EB560101FB0480C0B2334607
:105320005946FFF73CFF641CE4B2BC42E0D399E766
:1053300005EB560101FB0480C0B233463022EFE793
:105340002DE9FF4F80461D460F46C3468A46580743
:1053500000D0012000EBD50000FB05F9002447E058
:10536000102D10D0182D13D0202D19D0402D41D143
:10537000C949029801EB40204FF0000C065DF00790
:1053800014D00D9A15E0C549029801EB4010F3E7DF
:105390000298C14900EBC000C83901EBC000EBE73F
:1053A000BD490298803901EBC010E5E70D9818B3AC
:1053B000002239464046FFF72DFE7F1C0CF1010C00
:1053C00076080CF0FF0CFFB2BCF1080FD7D308F140
:1053D000010000F0FF08A8EB0B005946A84204D1D9
:1053E0000AF10800884600F0FF0A641C5746A4B280
:1053F0004C45B5D3BDE8FF8F0122DAE708B500269A
:10540000A74C91460F468046354610233246182158
:105410008020CDF80090FFF793FF761CF6B246454A
:105420001AD1002614E00121002004EBC10202EB96
:10543000000C135C401CC0B20CF8083C0828F6D3E2
:10544000491CC9B29029EFD3FFF7B0FD761CF6B224
:10545000B6EB071FE7D300266D1CEDB2102D00D16F
:1054600000250121002004EBC10202EB000C135CBB
:10547000401CC0B20CF8083C0828F6D3491CC9B23D
:105480009029EFD3FFF792FD002DC8D1BDE72DE99C
:10549000FF4F81B00446009091460D464FF0000842
:1054A0008A46580700D0012000EBD300049000206A
:1054B00031E000272AE00E985FF0000610F808C0DF
:1054C00008F101001FFA80F85FEACC7001D00F9A52
:1054D00002E00F9828B3002229462046FFF79AFDE4
:1054E0006D1C761CF6B24FEA5C0CEDB2082EEBD3C5
:1054F000641C0098E4B2211A494504D10AF108005D
:10550000009C00F0FF0A7F1C5546FFB24F45D2D3E6
:105510000BF10100C0B2049983468842C9D305B09B
:105520003BE60122D8E7F8B50121192004F067FA1B
:1055300001215C4804F008F92020ADF80000102497
:10554000594E8DF8034003258DF8025069463046C8
:1055500004F06BF82021304604F0D5F8ADF8004097
:105560008DF803408DF802506946304604F05DF82E
:105570003021304604F0C7F84FF46046ADF80060C3
:105580008DF80340494C8DF802506946204604F0DE
:105590004CF83146204604F0B6F8651429462046FA
:1055A00004F0B3F8C820FBF7DFFC2946204604F0DE
:1055B000AAF80021AE20FFF785FC00210846FFF77E
:1055C00081FC00211020FFF77DFC00214020FFF727
:1055D00079FC00218120FFF775FC0021CF20FFF727
:1055E00071FC0021A120FFF76DFC0021C820FFF70E
:1055F00069FC0021A620FFF765FC0021A820FFF729
:1056000061FC00213F20FFF75DFC0021D320FFF764
:1056100059FC00210846FFF755FC0021D520FFF773
:1056200051FC00218020FFF74DFC0021D920FFF71D
:1056300049FC0021F120FFF745FC0021DA20FFF7AB
:1056400041FC00211220FFF73DFC0021DB20FFF789
:1056500039FC00214020FFF735FC00212020FFF716
:1056600031FC00210220FFF72DFC00218D20FFF7E7
:1056700029FC00211420FFF725FC0021A420FFF7BE
:1056800021FC0021A620FFF71DFCFFF7B2FC002142
:10569000AF20FFF717FCF8BD5EF4000836F20008F3
:1056A000E820002000023000000C01400010014002
:1056B0002DE9FC5F0546DDE90C4BDDE90E974FF067
:1056C000000028700E46097899F800009A460844B0
:1056D000C1B23170009728785FEA020823460CD4E3
:1056E000FEA2FFF7C3FDCDE900472878317800EB33
:1056F0005400C0B2534642460CE0F9A2FFF7B6FD93
:10570000CDE900472878317800EB5400C0B2534609
:10571000C8F10002FFF7DEFD0AF101008BF800007E
:1057200089F80040BDE8FC9F2DE9FC5F0E46DDE9ED
:105730000E87DDE90C5B04460178914698F800007D
:105740009BF80020400802FB0010C0B2207003FB51
:1057500005009A46802806D900202070317898F8F4
:10576000000008443070009731782078B9F1000FBC
:105770002B460CDBD9A2FFF779FDCDE90057207845
:10578000317800EB5500C0B253464A460CE0D4A233
:10579000FFF76CFDCDE900572078317800EB55001C
:1057A000C0B25346C9F10002FFF794FD0AF10100AF
:1057B0008BF8000088F80050B4E7F8B51746DDE92B
:1057C00007421D460023069E03700B7894F800C024
:1057D000634403F0FF0C81F800C0009200782B4670
:1057E0003A466146FFF742FD384605F0A8F83070AA
:1057F0002570F8BD2DE9F84F0D46DDE90A86924681
:105800000446017898F800003278401C520800FBEA
:105810000210DDF8309020701F46504605F08FF8DA
:10582000217800FB0710802805D9002020702878F7
:10583000317808442870CDF80090297820783B46CC
:105840005246FFF713FD504605F079F888F800003E
:105850003770BDE8F88FF0B589B000200C278DF8BF
:1058600018008DF81C708DF810008DF81400FFF7EB
:10587000C0FB05AE012404AD0096CDE901540C2314
:1058800098A207A906A8FFF7B5FF9848CDE90254EA
:10589000CDE900760268052307A906A8FFF744FFB3
:1058A0000096CDE901540C2391A207A906A8FFF7A1
:1058B00084FF9248CDE90254CDE9007602680523C1
:1058C00007A906A8FFF730FF8D48CDE90254CDE9BE
:1058D00000760268052307A906A8FFF7E9FE8948B4
:1058E000006842F21071B0FBF1F2CDE90254CDE94B
:1058F00000760C2307A906A8FFF7DAFEFFF756FB90
:1059000009B0F0BD0246012000E05043491EC9B273
:10591000FBD270472DE9FF4F83B006461D46DDF8E8
:105920004090DDF84880059805F0D2FA824611983B
:1059300000244FF00A0B470828E0281B401EC1B284
:105940000A20FFF7DFFFBAFBF0F1B1FBFBF20BFB24
:105950001210019929B9691E8C4202DA50B1012155
:1059600001913030C2B207FB0460C0B2CDF80080B4
:10597000119B06E007FB0460119BC0B2CDF80080CC
:1059800020220499FFF70BFC641CE4B2AC42D4D390
:1059900007FB0560C0B2CDF800802E22119B049950
:1059A000FFF7FDFB49460A20FFF7ACFF05F06DFA53
:1059B0000446504605F060FA059905F03FF8214687
:1059C00005F03FF805F084FA824600241EE000BF8F
:1059D000A9EB0400401EC1B20A20FFF793FFBAFBF7
:1059E000F0F1B1FBFBF20BFB12106219711D07FB0A
:1059F000021101F0FF0C3030C2B2CDF800806046D9
:105A0000119B0499FFF7CBFB641CE4B24C45DFD338
:105A100007B0BDE8F08F2DE9FF4F83B00446DDE904
:105A200010A50698DDE913975044401C00F0FF08CC
:105A3000129893460E46027899F8000021784008A3
:105A400002FB0010C0B2207008FB0500802806D9B8
:105A500000202070317899F80000084430700097D9
:105A6000317820781BF1FF4F2B460ED21BA2FFF797
:105A7000FDFBCDF800A0CDE901572078317800EB8F
:105A80005500C0B25A46069B0EE015A2FFF7EEFB8A
:105A9000CDF800A0CDE9015720788BF0004200EB53
:105AA0005500C0B23178069BFFF734FF129908F118
:105AB0000100087089F80050AAE72DE9F0418AB08A
:105AC00000200C278DF81C008DF820708DF8140034
:105AD0008DF81800012405AD06AE15E02000000089
